:100000000C945D000C9485000C9485000C94390FC1
:100010000C94390F0C94390F0C9485000C948500C6
:100020000C9485000C9485000C9485000C9462104F
:100030000C9485000C9485000C9485000C9485002C
:100040000C94EF0E0C9485000C94BD0E0C94970E3E
:100050000C9485000C9485000C9485000C9485000C
:100060000C94430F0C94850000000000240027002E
:100070002A0000000000250028002B0004040404CE
:100080000404040402020202020203030303030342
:10009000010204081020408001020408102001021F
:1000A00004081020000000080002010000030407FB
:1000B00000000000000000001E1111241FBECFEF41
:1000C000D8E0DEBFCDBF12E0A0E0B1E0ECE5FFE29A
:1000D00002C005900D92AA31B107D9F725E0AAE137
:1000E000B2E001C01D92AD33B207E1F710E0CDE5FB
:1000F000D0E004C02197FE010E947216CC35D107D2
:10010000C9F70E9432120C94AC170C940000862F91
:10011000E091FE02F091FF02309711F0BA010994CC
:100120000895862FE091FC02F091FD02309711F0C6
:10013000BA0109940895862FE091FA02F091FB022A
:10014000309711F0BA0109940895862FE091F802D2
:10015000F091F902309711F0BA0109940895862FB1
:10016000E091F602F091F702309711F0BA0109948C
:100170000895862FE091F402F091F502309711F086
:10018000BA01099408950895862F642FE091000321
:10019000F0910103309711F0A90109940895E091BD
:1001A0000203F0910303309709F009940895CF9367
:1001B000DF93FC01A081B181109701F1EC01ED9179
:1001C000FC9111970190F081E02D69EFCD01099527
:1001D00088819981DC01ED91FC910190F081E02D05
:1001E00062E0099588819981DC01ED91FC91019093
:1001F000F081E02D65E0DF91CF910994DF91CF91FF
:100200000895A091A204B091A304ED91FC911197DF
:100210000190F081E02D682FCD010994982F209155
:10022000860381E0213208F043C08091620381118E
:10023000FCCF8091850332E0309362039093610399
:100240009FEF9093600310925F0320935E03A5E6F7
:10025000B3E0EEE3F3E090E0291331C010923D03E8
:1002600090913D03880F892B80933D0380913C033F
:10027000813049F510923C0380913D038093BB008F
:100280008091BC0083FDF8CF85EC8093BC00809109
:1002900062038230E1F3809160038F3FB1F080917F
:1002A00060038032A1F080916003803391F084E09C
:1002B00010926403109286031092630308953D9197
:1002C00031939F5FC9CF85EEE0CF80E0F1CF82E030
:1002D000EFCF83E0EDCF1F93CF93DF93182FEB0188
:1002E0008091690490916A046817790760F480919D
:1002F000670490916804C80FD91F188380E0DF91CC
:10030000CF911F910895E0919604F0919704309752
:1003100011F481E0F4CF81E080936604809182043F
:100320009091830409958091690490916A04C8179B
:10033000D90778F7DCCFCF93DF93EC01FB0130E0F6
:1003400020E0C901880F991F8C179D0778F4408120
:10035000DB014D93BD011197918197959927979551
:10036000942B9C932F5F3F4F3296EBCFC901DF91C7
:10037000CF910895009721F0805C9F4F0C94D70097
:100380000895AF92BF92CF92DF92EF92FF920F93B8
:100390001F93CF93DF936C017B018B01040F151F1B
:1003A000EB015E01AE18BF08C017D10759F0699183
:1003B000D601ED91FC910190F081E02DC6010995E7
:1003C000892B79F7C501DF91CF911F910F91FF9094
:1003D000EF90DF90CF90BF90AF900895FC01538DC8
:1003E000448D252F30E0842F90E0821B930B54170F
:1003F00010F0CF96089501970895FC01918D828D9C
:10040000981761F0A28DAE0FBF2FB11D5D968C9134
:10041000928D9F5F9F73928F90E008958FEF9FEF73
:100420000895FC01918D828D981731F0828DE80F2F
:10043000F11D858D90E008958FEF9FEF0895FC01E9
:10044000918D228D892F90E0805C9F4F821B9109B6
:100450008F739927089587E893E00E941F0221E097
:10046000892B09F420E0822F089580E090E0892B09
:1004700029F00E942B0281110C9400000895FC01C8
:10048000A48DA80FB92FB11DA35ABF4F2C91848DF5
:1004900090E001968F739927848FA689B7892C9352
:1004A000A089B1898C91837080648C93938D848DA5
:1004B000981306C00288F389E02D80818F7D8083A8
:1004C0000895EF92FF920F931F93CF93DF93EC0168
:1004D00081E0888F9B8D8C8D98131AC0E889F989EB
:1004E000808185FF15C09FB7F894EE89FF896083EE
:1004F000E889F98980818370806480839FBF81E06F
:1005000090E0DF91CF911F910F91FF90EF900895B0
:10051000F62E0B8D10E00F5F1F4F0F731127E02E8B
:100520008C8D8E110CC00FB607FCFACFE889F989C3
:10053000808185FFF5CFCE010E943F02F1CFEB8D88
:10054000EC0FFD2FF11DE35AFF4FF0829FB7F89497
:100550000B8FEA89FB8980818062CFCFCF93DF93B5
:10056000EC01888D8823B9F0AA89BB89E889F989CB
:100570008C9185FD03C0808186FD0DC00FB607FC00
:10058000F7CF8C9185FFF2CF808185FFEDCFCE0133
:100590000E943F02E9CFDF91CF91089590E0FC01E6
:1005A000EC55FF4F2491FC01E057FF4F3491FC01C3
:1005B000E458FF4FE491EE23C9F0222339F02330B1
:1005C00001F1A8F4213019F1223029F1F0E0EE0F09
:1005D000FF1FEE58FF4FA591B4918FB7F894EC919F
:1005E000611126C030953E233C938FBF089527307C
:1005F000A9F02830C9F0243049F7809180008F7D20
:1006000003C0809180008F7780938000DFCF84B516
:100610008F7784BDDBCF84B58F7DFBCF8091B00019
:100620008F778093B000D2CF8091B0008F7DF9CFCB
:100630003E2BDACFCF93DF9390E0FC01E057FF4FE2
:10064000249184589F4FFC0184918823C9F090E045
:10065000880F991FFC01E859FF4FA591B491FC0147
:10066000EE58FF4FC591D49161110DC09FB7F8941A
:100670008C91209582238C938881282328839FBF87
:10068000DF91CF910895623051F49FB7F8943C9177
:10069000822F809583238C93E8812E2BEFCF8FB709
:1006A000F894EC912E2B2C938FBFEACF8E3008F06C
:1006B0008E508770806480937C0080917A00806483
:1006C00080937A0080917A0086FDFCCF809178003B
:1006D0009091790008953FB7F8948091F00290913D
:1006E000F102A091F202B091F30226B5A89B05C0D9
:1006F0002F3F19F00196A11DB11D3FBFBA2FA92FA1
:10070000982F8827BC01CD01620F711D811D911D9D
:1007100042E0660F771F881F991F4A95D1F7089509
:100720008F929F92AF92BF92CF92DF92EF92FF9201
:100730006B017C010E946B034B015C01C114D1046D
:10074000E104F104B9F00E946B03681979098A0980
:100750009B09683E73408105910580F321E0C21A30
:10076000D108E108F10888EE880E83E0981EA11CEC
:10077000B11CE4CFFF90EF90DF90CF90BF90AF908F
:100780009F908F9008955F926F927F928F929F9229
:10079000AF92BF92CF92DF92EF92FF920F931F938F
:1007A000CF93DF935C016901DA015C90232B19F48C
:1007B000CC24CA94DC2C8A013A01660E771ED0E064
:1007C000C0E0F12CE12C87E0882E912CF50180818E
:1007D0009181D8016C910C2E01C0660F0A94EAF742
:1007E00065296F77DC01ED91FC910190F081E02D9E
:1007F0000995BFEFEB1AFB0AF801608170E0C401B4
:100800008C1B9D0B02C0759567958A95E2F7562E55
:100810002196C730D10558F1CE14DF0441F1D5013E
:100820008D919C91652D6F77DC01ED91FC9101908C
:10083000F081E02D0995BFEFEB1AFB0A551C5524FA
:10084000551C2797E6CFEC14FD0408F4BFCFDF91C9
:10085000CF911F910F91FF90EF90DF90CF90BF90BD
:10086000AF909F908F907F906F905F9008950F5FF3
:100870001F4F6016710639F7209749F3EC14FD04F9
:1008800030F7F5018081918161E070E001C0660F71
:10089000CA95EAF761506521DC01ED91FC91019068
:1008A000F081E02DDF91CF911F910F91FF90EF909C
:1008B000DF90CF90BF90AF909F908F907F906F9080
:1008C0005F9009941F93CF93DF9300D0CDB7DEB72D
:1008D000182F7A836983809164049091650400974E
:1008E000C9F0DC01ED91FC910190F081E02D103117
:1008F000B8F461157044A0F4612F606E099522E090
:1009000030E0AE014F5F5F4F62E070E084E694E05C
:100910000E94C3030F900F90DF91CF911F91089514
:1009200060EF09958091640490916504DC01ED917C
:10093000FC910190F081E02D6FE6099580916404AF
:1009400090916504DC01ED91FC910190F081E02D26
:10095000612F099522E030E0AE014F5F5F4F62E00A
:1009600070E084E694E00E94C30380916404909157
:100970006504DC01ED91FC910190F081E02D67EFC1
:100980000995C8CFEF92FF920F931F93CF93DF93F8
:10099000C82F80916404909165040097C9F17A0191
:1009A0008B01DC01ED91FC910190F081E02D60EF75
:1009B00009958091640490916504DC01ED91FC91AE
:1009C0000190F081E02D6C2F0995E7010E0D1F1DA0
:1009D000C017D10759F030E020E0AE0161E070E0CF
:1009E00084E694E00E94C3032196F2CF80916404D0
:1009F00090916504DC01ED91FC910190F081E02D76
:100A000067EFDF91CF911F910F91FF90EF900994C5
:100A1000DF91CF911F910F91FF90EF900895CF92AA
:100A2000DF92EF92FF920F931F93CF93DF93FC011E
:100A3000E058FF4FE080EE2009F45CC0EC01C05CA0
:100A4000DF4FA881B981109709F454C0FC01EF571A
:100A5000FF4FC080D180F60111810081ED91FC91A2
:100A600011970190F081E02D60EFCD01099588810B
:100A70009981DC01ED91FC910190F081E02D69E715
:100A8000099588819981DC01ED91FC910190F081BB
:100A9000E02D602F099588819981DC01ED91FC9111
:100AA0000190F081E02D612F0995F12C01E010E01B
:100AB0000F5F1F4FE016F10659F030E020E0A6016D
:100AC000400F511F61E070E0CE010E94C303F0CFE0
:100AD00088819981DC01ED91FC910190F081E02DFC
:100AE00067EFDF91CF911F910F91FF90EF90DF9013
:100AF000CF900994DF91CF911F910F91FF90EF90CC
:100B0000DF90CF900895009711F00C940F05089591
:100B100085ED8093BC008091BC0084FDFCCF1092D9
:100B2000620308952091C802260F3327331F213214
:100B30003105ECF420916203FC0190E080E0243068
:100B400069F082E00895A091C8022191AC014A5554
:100B50005D4FA40FB52FB11D2C930196861798F306
:100B60008091C802680F6093C80280E0089581E018
:100B70000895089508950895E091A5028091A40232
:100B8000E81730F4F0E0EC57FD4F808190E00895D5
:100B90008FEF9FEF08959091A5028091A4022FEF0F
:100BA0003FEF981748F4E92FF0E0EC57FD4F208114
:100BB00030E09F5F9093A502C90108958091A4023F
:100BC0009091A502891B990B0895CF92DF92EF9225
:100BD000FF920F931F93CF93DF937C01CB018A0188
:100BE00020916303222389F0EB016B01C40ED51E13
:100BF000CC15DD0569F06991D701ED91FC9101906B
:100C0000F081E02DC7010995F3CF642F0E94920572
:100C1000C801DF91CF911F910F91FF90EF90DF906E
:100C2000CF900895CF93DF931F92CDB7DEB769833E
:100C3000209163032223F9F020918603203258F09B
:100C400021E030E0FC013383228390E080E00F90CC
:100C5000DF91CF91089580916403E82FF0E0EB5984
:100C6000FC4F998190838F5F809364038093860308
:100C700081E090E0ECCF61E0CE0101960E94920508
:100C8000F7CF90E080E00895DF92EF92FF920F930C
:100C90001F93CF93DF93EC01D62E7A0189018881CF
:100CA0008C3008F067C061E08D2D0E941A038881A6
:100CB000282F30E0F901EE0FFF1FE20FF31FE05184
:100CC000FB4F9D2D9F736081607C692B608320E2C8
:100CD00032E02E193F0937FF02C02D5F3F4F359597
:100CE000279535952795298320E639E0201B310B80
:100CF00037FF02C02D5F3F4F3595279535952795D6
:100D00002A832CE0622F0E946616829FB001112474
:100D100030E020E0AB01420F531FFA01EE0FFF1F3E
:100D2000E40FF51FE051FB4F908196FD16C02F5F39
:100D30003F4F2C30310571F781110FC010928000A8
:100D400082E0809381001092850010928400B19A15
:100D500080916F00826080936F00E8818E2F90E019
:100D6000FC01EE0FFF1FE80FF91FE051FB4F8081E0
:100D7000806480838881DF91CF911F910F91FF90D4
:100D8000EF90DF900895CF938630B0F421E030E00B
:100D9000082E02C0220F331F0A94E2F74091360357
:100DA00050913703672B51F4209530952423352338
:100DB0003093370320933603CF910895242B352B9E
:100DC0003093370320933603909182029111F4CF30
:100DD000C82F0E945603BC018C2FCF910C94620443
:100DE0005F926F927F928F929F92AF92BF92CF92BB
:100DF000DF92EF92FF920F931F93CF93DF93833095
:100E000008F061C0D1E0D80FDD0FDD0FDD0F5D2EE2
:100E1000D53110F044E1542EC62F082FD8508D2E16
:100E2000912CC401880F991F9C012C5D3B4F5901E7
:100E3000D12CC12C10E077247394D515C8F58EEF12
:100E40008D0F8231F8F4F601E80DF91DE955FB4FDD
:100E500090819230B8F48C2F87216624639481119D
:100E600001C0612C7601EE0CFF1C913089F417292A
:100E700037E9E30EF11CF501EE0DFF1D862D90E024
:100E800091838083770CDF5F8FEFC81AD80AD5CFA4
:100E9000882371F3F701E956FF4FEA0DFB1D8081AE
:100EA0009181019729F362E08D2F0E941A03E0CF10
:100EB000011119C0F8948BB16C2F68276C7F6123E6
:100EC00068276BB97894DF91CF911F910F91FF90B4
:100ED000EF90DF90CF90BF90AF909F908F907F90DA
:100EE0006F905F9008950130D1F4C123F89495B1CB
:100EF000812F8F73809589239C2F9F73892B85B9B0
:100F000088B1612F629566956695637060956823D8
:100F1000C295C695C695C370C62BC8B9D3CF1F70EE
:100F2000F89498B1812F880F880F80958923C12369
:100F3000CC0FCC0FC82BF1CF8F929F92AF92BF9264
:100F4000CF92DF92EF92FF920F931F93CF93DF9395
:100F5000EB01843108F098C0082F10E0F801E95542
:100F6000FB4F9081933009F49CC0943009F08CC001
:100F70008250823108F081C0F801E659FD4FC080EF
:100F8000D12C7601EE0CFF1C4B01603282E0780719
:100F90000CF03EC0F701EC0DFD1DEB5EFA4F8181B8
:100FA000A8E88A2E912C881A910887FD9394880CC2
:100FB000991C880C991C092C000CAA08BB0882817A
:100FC00028E532E0281B310987FD3395220F331FB6
:100FD000220F331F032E000C440B550B281939091F
:100FE0004A095B09DB01653B710514F0A4EBB0E035
:100FF000B7FF02C0B0E0A0E00E942D1624EB30E065
:1010000040E050E00E940316820E931EA41EB51EFF
:10101000F701EC0DFD1DEB5EFA4F20812C3068F5D9
:10102000318188E890E0831B910937FD9395880F03
:10103000991F880F991F881699067CF0328188E5E0
:1010400092E0831B910937FD9395880F991F880FB4
:10105000991F881699060CF4C4010297880F991FEE
:101060004FB7F89430E0F901EE0FFF1FE20FF31FC6
:10107000E051FB4F928381834FBF000F111FF80196
:10108000E554FB4FD183C083DF91CF911F910F9126
:10109000FF90EF90DF90CF90BF90AF909F908F9098
:1010A00008957B01D82F833041F08BEF800F823081
:1010B00020F087EF800F833058F461E08D2F0E947D
:1010C0001A03E114F10461F460E08D2F0E94CE0256
:1010D000000F111FF801E554FB4FF182E082D4CFDD
:1010E0008FEFE816F10411F461E0EFCFF801EC5551
:1010F000FF4FE491E33021F148F4E130B9F0E23000
:10110000D1F080E8E816F1047CF7DECFE73011F18A
:10111000E83041F1E430A9F780918000806280934B
:101120008000F0928B00E0928A00D2CF84B5806874
:1011300084BDE7BCCDCF84B5806284BDE8BCC8CF98
:1011400080918000806880938000F0928900E09216
:101150008800BECF8091B00080688093B000E0929C
:10116000B300B6CF8091B00080628093B000E0926F
:10117000B400AECF9EEF980F923180F4E82FF0E0EC
:10118000DF01A955BB4F9C91913041F4EE0FFF1F39
:10119000E554FB4F608371830C94CE020895FF9257
:1011A0000F931F93CF93DF9300D0CDB7DEB7082FF7
:1011B00010E0F801EC5FFC4F9081F62EF922025806
:1011C0001D4F411104C0F80190819F1511F12F2D81
:1011D00030E03A832983A0916404B09165041097AC
:1011E000B1F0682F6F706069ED91FC9111970190DB
:1011F000F081E02DCD01099522E030E0AE014F5F96
:101200005F4F62E070E084E694E00E94C303F8015F
:10121000F0820F900F90DF91CF911F910F91FF906F
:101220000895833040F5282F30E0F901E95FFC4F45
:101230006083672B01F12C5F3C4FF90160818111C4
:1012400006C099B19C7F692341E00C94CF0881309E
:1012500049F493B126B19F73F0E42F9F90011124BC
:10126000922BF1CF26B130E035952795359527950E
:101270002F706223E9CF0895A82FB0E0A659BD4F83
:101280009C91292F30E0F901EE0FFF1FE20FF31FB1
:10129000EB5EFA4FE0812E2F30E0F901EE0FFF1FD9
:1012A000E20FF31FE051FB4F80818F7B80838091A1
:1012B0006802981308C0992319F09150909368021E
:1012C0008FEF8C9308958823D9F3E0916902EF5F43
:1012D000E0936902F0E0E75EFD4F9083F1CFFC01FF
:1012E00001900020E9F73197BF01681B790BAC0131
:1012F00081E70C94C204CF93DF93DB0190916802E5
:101300009C3078F530916902682F70E0FB01E65956
:10131000FD4F3323E1F0C32FD0E0C75EDD4F88815E
:101320008083315030936902808123E0829FC00125
:1013300011248B5E9A4F1A161B0674F414161506A8
:101340005CF49A01AD01DF91CF910C944406908337
:101350009F5F90936802E8CF20E639E040E252E0D8
:10136000F2CF8DE291E0DF91CF910C946F099F92C3
:10137000AF92BF92CF92DF92EF92FF920F931F93A3
:10138000CF93DF93C82ED12CE601CC5DDB4FFE015D
:10139000ED57FF4F90819F3709F49FC0963061F45D
:1013A00090918102992341F06630710529F01092E5
:1013B00081029FEF909300017B01182F0EEF080F21
:1013C000023108F564307105F1F0F601E659FD4F80
:1013D00080818C30C0F490E0FC01EE0FFF1FE80F1D
:1013E000F91FEB5EFA4FE0818E2F90E0FC01EE0FCB
:1013F000FF1FE80FF91FE051FB4F808186FF03C0FC
:10140000812F0E943C0952EF952E910E85E089159F
:1014100058F061E070E032E0E316F10411F070E0A2
:1014200060E0892D0E94C3060231C8F4E12FE695E1
:10143000E695E695F0E0EC5FFC4F2081312F3770A8
:1014400081E090E001C0880F3A95EAF7E114F104D9
:1014500021F03BE0E316F10401F5822B8083560175
:10146000AA0CBB1CF501E554FB4F118210828CE0E5
:10147000E816F10408F0CBC0F701EF5BF54F0C94D0
:101480007216610A8E0A500AA50AC40A070BFB0AE3
:10149000070B070B070B6D0A790A80958223DECFB5
:1014A00035E03915D0F0023120F460E0812F0E9440
:1014B0001A03CD57DF4F88818F3779F082E0888318
:1014C0000CC0023150F460E0812F0E941A03CD5706
:1014D000DF4F88818F3709F01882DF91CF911F91FC
:1014E0000F91FF90EF90DF90CF90BF90AF909F90C3
:1014F0000895023190F762E0812F0E941A03CD57C0
:10150000DF4F88818F3711F08BE08883F501E55438
:10151000FB4F81E090E091838083DFCF0231E8F6DA
:10152000FE01ED57FF4F8081833021F460E0812F71
:101530000E94CE0261E0812F0E941A03CD57DF4F37
:1015400088818F3751F281E0BACF133049F08BEFA9
:10155000810F823028F087EF810F833008F0BDCFF4
:1015600061E0812F0E941A0361E0812F0E941A031B
:1015700060E0812F0E94CE02CD57DF4F88818F37E8
:1015800009F4ABCF83E09BCF023108F0A6CFCD5753
:10159000DF4F88818F3711F084E08883F601E659A8
:1015A000FD4F80818F3FA9F090E0FC01EE0FFF1FFF
:1015B000E80FF91FEB5EFA4FE0818E2F90E0FC01FF
:1015C000EE0FFF1FE80FF91FE051FB4F808186FDF2
:1015D00084CF4FEF5FEF6FEF7FEF812FDF91CF91E0
:1015E0001F910F91FF90EF90DF90CF90BF90AF9041
:1015F0009F900C947B091251123008F06ECFCD579A
:10160000DF4F88818F3709F468CF86E058CF81E4B7
:1016100091E0DF91CF911F910F91FF90EF90DF90BC
:10162000CF90BF90AF909F900C946F090F931F9332
:10163000CF93DF9381E0809382028091810288239F
:1016400029F0109281028FEF80930001109207031E
:101650001092040310927E02109208031092050368
:1016600010927F02109209031092060310928002DA
:101670000AE612E0C0E0DFEF82EF8C0F62E070E07C
:10168000863030F08EEF8C0F823128F461E070E00C
:101690008C2F0E94B709F801D1938F01CF5FC4311D
:1016A00059F7109237031092360310926902109284
:1016B000680210928202DF91CF911F910F910895DD
:1016C000EF92FF920F931F93CF93DF93D82F8B014D
:1016D000C42FF22E6F3F760709F488C081E0809313
:1016E0006303D0938503109264031092860384EE03
:1016F00094E00E9412068F2D0E940E0180916602D6
:10170000909167028230910538F0880F991F880FF9
:10171000991F05970197F1F7809162038111FCCF22
:101720009C2FC13208F090E281E0809362038093A5
:1017300061032FEF2093600310925F03290F209322
:101740005E0380933D0320913D038D2F880F822BF4
:1017500080933D0380913C03813009F049C0109291
:101760003C0380913D038093BB008091BC0083FDCE
:10177000F8CF85EC8093BC00809162038130E1F367
:1017800080915F03891710F490915F03AEE3B3E09B
:10179000E4E8F2E080E089132DC01092A502809366
:1017A000A402EC2EF12C90E0E816F9063CF582E557
:1017B00091E00E946F09D09326020093270206E26F
:1017C00012E0C801865292408E159F05ECF40F5F1F
:1017D0001F4F9091A4028091A5029817A9F084EE62
:1017E00094E00E94CB05F8018183EBCF00E094CF19
:1017F00085EEC0CF2D9121938F5FCDCF8E159F05A4
:10180000D4F68FE691E0D5CFCE5F6C2F70E046E244
:1018100052E087E7DF91CF911F910F91FF90EF90FA
:101820000C94C204EF92FF920F931F93CF93DF9318
:101830008956823108F033C0EA01162FE82FF0E014
:10184000EC5DF34F0C947216860E4F0CED0D4F0CA1
:10185000450E4F0CCB0D6F0D4F0C4F0C4F0C4F0C1A
:101860004F0C360C4F0C170D4F0CB50D998195FF91
:101870000AC08BE891E0DF91CF911F910F91FF900B
:10188000EF900C946F09888131E096FB222720F9B4
:10189000232798719830D1F148F49923A9F0DF916A
:1018A000CF911F910F91FF90EF900895903109F41F
:1018B0004CC09831A1F72091000112160CF472C0AF
:1018C0008FEF80930001EBCF309363038093850308
:1018D000109264031092860302E0011778F4FE016F
:1018E000E00FF11D61816795662767958081680F1C
:1018F00084EE94E00E9412060E5FEFCF81E00E941A
:101900000E0183E191E00197F1F7C9CF9A814B81F4
:101910006630A1F430E8439FB0011124690F711DB6
:101920004D814795442747959C81490FDF91CF9181
:101930001F910F91FF90EF900C94600B47954427F7
:101940004795490F6FEF7FEFF1CFE0910001E7304E
:101950001CF08BEA91E08FCF3A819B816630D9F4FD
:1019600060E8969FA0011124430F511D9D8197951A
:10197000992797953C81930FEF5FE093000135E045
:10198000E302F0011124E25FFC4F80835283418324
:101990009383248384CF979599279795930F4FEF3F
:1019A0005FEFEACF90E0622F022E000C770B35E05C
:1019B000492F50E06417750764F0349FF001359F9C
:1019C000F00D1124E25FFC4F4081481719F09F5F32
:1019D000EFCF90E085E0492F50E0641775071CF1C8
:1019E0009830F8F4FA0131968E9FD0018F9FB00D98
:1019F0001124A25FBC4F3C91849FF001859FF00DA4
:101A00001124E25FFC4F308311964D915C91129747
:101A10005283418313963C911397338314963C91E0
:101A200034839F5FD8CF21502093000138CF62309C
:101A300078F0898160E8869F900111248881820F67
:101A4000932F911D009721F0909367028093660277
:101A500080918102811123CFC0E08EEE8C0F823005
:101A600028F466E070E08C2F0E94B709CF5FC43184
:101A7000A1F781E0809381021092A5021092A40246
:101A800010926403109286031092620380936103A4
:101A900010923C0361E082E10E94CE0261E083E1AA
:101AA0000E94CE028091B9008E7F8093B900809110
:101AB000B9008D7F8093B90088E48093B80085E4F5
:101AC0008093BC0089EB95E09093C7028093C60297
:101AD0008AEB95E09093CB028093CA02E0CE65300A
:101AE00008F4DDCE18818EEF810F823108F0D7CE59
:101AF0000981EA80FB80CC81E12FF0E0E659FD4FBF
:101B000080818C30C0F490E0FC01EE0FFF1FE80FE5
:101B1000F91FEB5EFA4FE0818E2F90E0FC01EE0F93
:101B2000FF1FE80FF91FE051FB4F808186FF03C0C4
:101B3000812F0E943C0980E8C89FA00111244F0D0D
:101B4000511D90E8E99EB0011124600F711D812F95
:101B50000E947B0964E070E0812FDF91CF911F919B
:101B60000F91FF90EF900C94B709623008F497CE74
:101B70008981E0E88E9F900111248881820F932F44
:101B8000911D009729F0909302018093010187CE67
:101B900081E090E0F8CF623008F481CE698170E096
:101BA000123091F08A81F0E88F9FC0011124682BD8
:101BB000792B133049F08B8190E090E4899F902D30
:101BC00088271124682B792B8881DF91CF911F9171
:101BD0000F91FF90EF900C949C0780EF0E94010101
:101BE0008CE60E940101CEEF84EF8C0F863020F549
:101BF00082E00E9401018AE00E9401018DEF8C0FBA
:101C00008230E0F089EF8C0F8330F0F417C0C231DE
:101C100058F780E00E94010181E00E9401018BE001
:101C20000E94010181E00E94010181E00E94010106
:101C300081E00E940101D8CFC13001F783E00E940A
:101C4000010188E00E940101C23130F484E00E9469
:101C500001018EE00E94010180EF8C0F823030F490
:101C600086E00E94010181E00E9401018FE70E944D
:101C70000101CF5FC23159F687EFDF91CF911F91FC
:101C80000F91FF90EF900C940101662309F407CEA9
:101C9000C88180EF0E9401018EE60E9401018C2F15
:101CA0000E940101C43140F7D0E0FE01E955FB4F2D
:101CB00080810E940101CC0FDD1F8E0105541B4F56
:101CC000F80180818F770E940101F8018081918164
:101CD0009C012078232B39F0880F892F881F990BBE
:101CE0008F770E940101C554DB4F888199819C0147
:101CF0002227307C232B09F4BFCF990F880B990F33
:101D0000982F881F8F770E940101B6CF80EF0E9425
:101D100001018AE60E940101C2EF8FE7C63008F494
:101D20008C2F0E940101CF5FC630B9F7A5CF1F925B
:101D30000F920FB60F9211242F933F934F935F93FF
:101D40006F937F938F939F93AF93BF93EF93FF9383
:101D500087E893E00E943F02FF91EF91BF91AF911E
:101D60009F918F917F916F915F914F913F912F91B3
:101D70000F900FBE0F901F9018951F920F920FB6E5
:101D80000F9211242F938F939F93EF93FF93E091E2
:101D90009703F09198038081E0919D03F0919E0359
:101DA00082FD1BC090818091A0038F5F8F73209173
:101DB000A103821741F0E091A003F0E0E957FC4F46
:101DC000958F8093A003FF91EF919F918F912F9119
:101DD0000F900FBE0F901F9018958081F4CF1F9227
:101DE0000F920FB60F9211242F933F938F939F93CF
:101DF000AF93BF9380910A0390910B03A0910C03C2
:101E0000B0910D033091EF0223E0230F2D3758F5E9
:101E10000196A11DB11D2093EF0280930A039093B8
:101E20000B03A0930C03B0930D038091F0029091EB
:101E3000F102A091F202B091F3020196A11DB11D31
:101E40008093F0029093F102A093F202B093F30218
:101E5000BF91AF919F918F913F912F910F900FBEA6
:101E60000F901F90189526E8230F0296A11DB11D13
:101E7000D2CF1F920F920FB60F9211240F900FBE68
:101E80000F901F9018951F920F920FB60F9211246A
:101E90002F933F934F935F936F937F938F939F9372
:101EA000AF93BF93EF93FF938091B900887F803603
:101EB00009F44AC0F0F5883209F4A7C018F580315A
:101EC00009F49BC0B8F4882309F4F9C0883009F4F8
:101ED00094C0FF91EF91BF91AF919F918F917F91AE
:101EE0006F915F914F913F912F910F900FBE0F9087
:101EF0001F901895883109F488C0803251F780937B
:101F0000600314C0803409F49DC040F48033B9F3F9
:101F10008833F9F68093600385ECB0C0803509F40E
:101F200085C0883509F496C0883499F60E948805E2
:101F3000D0CF883909F48CC038F5883729F050F4AF
:101F4000883611F0803729F683E08093620310927F
:101F5000EC0257C0883809F47BC0803919F080380A
:101F600009F0B7CF8091EC02803208F071C0E091A7
:101F7000EC0281E08E0F8093EC028091BB00F0E0D8
:101F8000E453FD4F80833DC0803B39F0E0F4803A5C
:101F900009F479C0883A09F09CCF84E08093620309
:101FA0001092C9021092C802E091C602F091C702D5
:101FB00009958091C80281110FC081E08093C80209
:101FC0001092A60209C0803C09F4A6CF883C09F40F
:101FD000A3CF883B09F07DCFE091C90281E08E0F4D
:101FE0008093C902F0E0EA55FD4F80818093BB00E9
:101FF0009091C9028091C80229C080913D038093CD
:10200000BB0085EC8093BC0064CF90915F0380910E
:102010005E03981758F5E0915F0381E08E0F80937F
:102020005F03F0E0E25CFC4F8081E9CFE0915F0369
:1020300081E08E0F80935F038091BB00F0E0E25C53
:10204000FC4F808390915F0380915E039817C8F2E4
:1020500085E8D8CFE0915F0381E08E0F80935F0326
:102060008091BB00F0E0E25CFC4F808380916103D3
:1020700081115CCF81E080933C0384EA8093BC00B3
:102080001092620326CF85EC8093BC00109262030D
:102090008091EC02803230F4E091EC02F0E0E45305
:1020A000FD4F10826091EC0270E0E091CA02F09165
:1020B000CB028CEC92E009951092EC020ACF1092C0
:1020C000600334CF1F920F920FB60F9211242F93FB
:1020D0003F934F935F936F937F938F939F93AF93B0
:1020E000BF93CF93DF93EF93FF9380918302C091CF
:1020F0001405D0E087FF24C0109285001092840060
:10210000809183028F5F8093830280918302082EE7
:10211000000C990B8C179D0724F4809183028C305E
:10212000C4F18091840090918500049680349C498C
:1021300008F47AC08091840090918500049676C05E
:1021400080918302082E000C990B8C179D07C4F612
:10215000E09183028E2FEE0F990BFC01EE0FFF1F13
:10216000E80FF91FE051FB4F808186FFC9CFE09156
:1021700083028E2FEE0F990BFC01EE0FFF1FE80F6D
:10218000F91FE051FB4F808160E08F730E94CE0207
:10219000B7CF2091840030918500E09183028E2F8B
:1021A000EE0F990BFC01EE0FFF1FE80FF91FE05136
:1021B000FB4F81819281820F931F909389008093BE
:1021C0008800E09183028E2FEE0F990BFC01EE0F39
:1021D000FF1FE80FF91FE051FB4F808186FF11C000
:1021E000E09183028E2FEE0F990BFC01EE0FFF1F83
:1021F000E80FF91FE051FB4F808161E08F730E946F
:10220000CE02FF91EF91DF91CF91BF91AF919F915E
:102210008F917F916F915F914F913F912F910F908F
:102220000FBE0F901F90189580E49CE99093890051
:10223000809388008FEF80938302E3CF10928A030C
:102240001092890348EE53E060E070E040938B0306
:1022500050938C0360938D0370938E038DE091E017
:10226000909388038093870385EC90E09093940388
:102270008093930384EC90E090939603809395036E
:1022800080EC90E0909398038093970381EC90E02A
:1022900090939A038093990382EC90E090939C032F
:1022A00080939B0386EC90E090939E0380939D0324
:1022B0001092A0031092A1031092A2031092A30304
:1022C00084E294E010926504109264049093680490
:1022D0008093670420E430E030936A04209369041B
:1022E00010926B0410926C0410926E0410926D04A4
:1022F00010926F0410927104109270041092730483
:102300001092720410927504109274041092770463
:1023100010927604109279041092780410927B0443
:1023200010927A0410927D0410927C04109283041F
:1023300010928204109285041092840410928704F3
:1023400010928604109289041092880410929704C7
:1023500010929604109266041092A4041092A6049F
:102360001092A5041092E30427E830E030938B0428
:1023700020938A0421E930E030938D0420938C046B
:102380002BE930E030938F0420938E0425EA30E06F
:1023900030939104209390042FEA30E0309393041B
:1023A0002093920429EB30E0309395042093940419
:1023B00023EC30E0309399042093980424EC30E02F
:1023C00030939B0420939A0423E835E030939D04D6
:1023D00020939C0490937F0480937E042AEB31E049
:1023E00030939F0420939E049093810480938004F3
:1023F0008FEC90E09093A1048093A0041092E704E6
:102400001092E6044093E8045093E9046093EA04D0
:102410007093EB048FE191E09093E5048093E404E2
:10242000E5E1F5E02FEF48EB5BE0809114058C309F
:10243000B8F491E0980F90931405808390E0DC014C
:10244000AA0FBB1FA80FB91FA051BB4F12965C93D8
:102450004E931197339685E0E933F80731F70895E5
:102460002083F8CF789484B5826084BD84B5816080
:1024700084BD85B5826085BD85B5816085BD80914F
:102480006E00816080936E001092810080918100C7
:1024900082608093810080918100816080938100BF
:1024A000809180008160809380008091B100846081
:1024B0008093B1008091B00081608093B0008091E2
:1024C0007A00846080937A0080917A0082608093A1
:1024D0007A0080917A00816080937A0080917A00FE
:1024E000806880937A001092C10085E18093A404F3
:1024F0008091A5049091A6040E941417C091A40491
:10250000D0E0CE0101960E9478169093A6048093A5
:10251000A504FC01EC0FFD1F108212E0DC011C93EE
:1025200025E011962C93AE014250510966E072E00D
:1025300002960E949D178CE997E09093FF0280938A
:10254000FE0280EF96E09093FD028093FC0283EC04
:1025500096E09093FB028093FA0281E199E09093D8
:10256000F9028093F80287EB99E09093F702809349
:10257000F6028AEB98E09093F5028093F40282E1F0
:102580009CE0909301038093000386E19BE090938D
:10259000030380930203E0919703F0919803108363
:1025A000E0919703F09198031082E0919303F091EA
:1025B00094031082E0919503F091960380E180836B
:1025C00010929F03E0919B03F0919C0386E080832F
:1025D000E0919903F0919A03808180618083E0917A
:1025E0009903F0919A03808188608083E091990338
:1025F000F0919A03808180688083E0919903F09143
:102600009A0380818F7D80838091E30481114FC084
:1026100061E08DE00E941A0362ED70E080E090E0DE
:102620000E94900361E08DE00E94CE0268E270E0BB
:1026300080E090E00E94900360E08DE00E94CE0276
:1026400062ED70E080E090E00E94900361E08DE038
:102650000E94CE0268E270E080E090E00E94900369
:1026600060E08DE00E94CE026AEF70E080E090E0D2
:102670000E949003C5E062ED70E080E090E00E946F
:10268000900361E08DE00E94CE0268E270E080E09D
:1026900090E00E94900360E08DE00E94CE02C15065
:1026A00051F76DE770E080E090E00E94900387E8CA
:1026B00093E09093A3048093A20490936504809385
:1026C000640484E694E00E94D70084E294E00E94CF
:1026D0000F050E94160B25E0D22EC0E0D0E0CC24DE
:1026E000C39402E010E0EE24E394F12C8091070300
:1026F000882349F069B18091040368236C7F40E02E
:1027000080E00E94CF0880910803882379F063B1AC
:1027100086B16F73B0E48B9FC0011124682B809148
:102720000503682340E081E00E94CF0880910903FF
:10273000882359F066B1809106038F70669566957F
:10274000682340E082E00E94CF088091A20490912B
:10275000A304DC01ED91FC910084F185E02D099545
:10276000892B09F4CEC18091A2049091A304DC01CD
:10277000ED91FC910284F385E02D09959C018F3F3A
:10278000980719F3982F80916F04882309F492C059
:10279000973F09F07EC010926F04A0916704B0913A
:1027A00068046C916137C1F1693709F05CC0E09150
:1027B0009C04F0919D04309741F2809170049091B7
:1027C00071048330910560F430E020E050E040E097
:1027D00070E060E080917E0490917F040995B5CF10
:1027E000BD016D5F7F4F03970E949B01BC016D5F30
:1027F0007F4F80E00E946B01E0916704F0916804D4
:102800009F012D5F3F4F428150E0618170E0E09178
:102810009C04F0919D04DECF8091980490919904DE
:10282000892B09F492CFBD016F5F7F4F80917004B7
:102830009091710401970E949B01BC016F5F7F4FD3
:1028400080E00E946B0160916704709168046F5F83
:102850007F4FE0919804F0919904809184049091C5
:102860008504099572CFE0919A04F0919B0430970A
:1028700009F46BCF9D012F5F3F4F40917004509141
:102880007104415051098091860490918704099503
:102890005CCF6091700470917104822F0E946B0173
:1028A00080917004909171040196909371048093CB
:1028B00070044BCF60916D0470916E0461157105C9
:1028C00009F4B1C027FDAFC06150710970936E0467
:1028D00060936D04822F0E946B0180916D04909132
:1028E0006E04892B09F031CF80916B04882309F4A1
:1028F0002CCF803D09F483C040F4803949F1803CFD
:1029000009F469C010926B0420CF843FE1F1853F48
:1029100009F44DC0803EB1F7E0918A04F0918B0438
:10292000309781F3A0916704B09168044C9120E83E
:10293000429FC001112411964C91480F592F511DEF
:1029400060916C0480917204909173040995DACFC0
:10295000E0918C04F0918D043097A1F2A09167046E
:10296000B09168044C9120E8429FC0011124119657
:102970004C91480F592F511D60916C048091740443
:1029800090917504E3CFE0919204F0919304309715
:1029900009F4B8CFA0916704B09168044C9150E05D
:1029A00011966C9180917A0490917B04CFCFE09145
:1029B0009404F0919504309709F4A4CFA091670492
:1029C000B09168044C9150E011966C9180917C0418
:1029D00090917D04BBCFE0918E04F0918F043097ED
:1029E00009F490CFA0916704B09168044C9150E035
:1029F00060916C048091760490917704A7CFE09168
:102A00009004F0919104309709F47CCFA091670471
:102A1000B09168044C9150E060916C04809178040E
:102A20009091790493CF903F30F4822F8F708093F0
:102A30006C04922F907F903FF1F190F4903CB1F1B3
:102A400050F4903909F081CE10936E0400936D0418
:102A500090936B047ACE903D49F1903EA9F375CEE8
:102A6000993F09F442C028F48CE0890F823060F36A
:102A70006CCE9F3F09F069CE10926E0410926D04E7
:102A800010926B0410926C0490E080E02091690435
:102A900030916A0482179307A8F4E0916704F091DB
:102AA0006804E80FF91F10820196F0CFF0926E04CF
:102AB000E0926D04CDCFC0926F0410927104109219
:102AC000700443CE10926F0410927104109270043F
:102AD000E091A004F091A104809188049091890470
:102AE000309709F432CE099530CEE0919E04F091F2
:102AF0009F04309709F429CE80918004909181043D
:102B0000F2CF8FB7F89480900A0390900B03A090B7
:102B10000C03B0900D038FBF80913803909139035F
:102B2000A0913A03B0913B03409101015091020101
:102B300070E060E0881A990AAA0ABB0A481559058C
:102B40006A057B0508F054C0840F951FA61FB71FA8
:102B50008093380390933903A0933A03B0933B03D7
:102B600084E2882E84E0982E92EFB92E85E08B15B2
:102B7000C8F0F401ED57FF4F8081823099F48091C5
:102B80003603909137030B2C02C0959587950A94D4
:102B9000E2F780FF07C08B2D0E945603BC018B2DEE
:102BA0000E946204B394AFEF8A1A9A0AB6E0BB128D
:102BB000DDCF8091000187FD1BC0B12C2B2D30E0B3
:102BC00080910001082E000C990B8217930784F066
:102BD000D29EF001D39EF00D1124E25FFC4F618183
:102BE00072812481438180810E94600BB394E6CF7F
:102BF000209709F47BCD0E942B02882309F476CD1F
:102C00000E94000073CD052E97FB1EF400940E94D5
:102C10001A1657FD07D00E94351607FC03D04EF454
:102C20000C941A1650954095309521953F4F4F4F73
:102C30005F4F089590958095709561957F4F8F4F68
:102C40009F4F08950E945716A59F900DB49F900D19
:102C5000A49F800D911D11240895B7FF0C94221696
:102C60000E942216821B930B0895A1E21A2EAA1B22
:102C7000BB1BFD010DC0AA1FBB1FEE1FFF1FA2172C
:102C8000B307E407F50720F0A21BB30BE40BF50B29
:102C9000661F771F881F991F1A9469F760957095B2
:102CA000809590959B01AC01BD01CF010895A29F35
:102CB000B001B39FC001A39F700D811D1124911D10
:102CC000B29F700D811D1124911D0895991B79E00B
:102CD00004C0991F961708F0961B881F7A95C9F7AC
:102CE00080950895EE0FFF1F0590F491E02D099453
:102CF0000F931F93CF93DF938230910510F482E0FE
:102D000090E0E0913B05F0913C0530E020E0B0E040
:102D1000A0E0309799F42115310509F44AC0281B29
:102D2000390B24303105D8F58A819B8161157105F5
:102D300089F1FB0193838283FE0111C0408151819F
:102D40000281138148175907E0F04817590799F491
:102D5000109761F012960C93129713961C9332966B
:102D6000CF01DF91CF911F910F91089500933B0503
:102D700010933C05F4CF2115310551F0421753074C
:102D800038F0A901DB019A01BD01DF01F801C1CFD3
:102D9000EF01F9CF90933C0580933B05CDCFFE0129
:102DA000E20FF31F819391932250310939832883D5
:102DB000D7CF2091390530913A05232B41F420914A
:102DC00005013091060130933A0520933905209191
:102DD0000301309104012115310541F42DB73EB7AF
:102DE0004091070150910801241B350BE0913905F2
:102DF000F0913A05E217F307A0F42E1B3F0B2817BA
:102E0000390778F0AC014E5F5F4F2417350748F063
:102E10004E0F5F1F50933A0540933905819391936C
:102E20009FCFF0E0E0E09CCFCF93DF930097E9F0F5
:102E3000FC01329713821282A0913B05B0913C05B0
:102E4000ED0130E020E01097A1F420813181820F64
:102E5000931F2091390530913A052817390709F059
:102E600061C0F0933A05E0933905DF91CF91089561
:102E7000EA01CE17DF07E8F54A815B819E01411523
:102E80005105B1F7E901FB83EA8349915991C40FD8
:102E9000D51FEC17FD0761F4808191810296840FA4
:102EA000951FE90199838883828193819B838A831B
:102EB000F0E0E0E012968D919C9113970097B9F5A0
:102EC0002D913C911197CD010296820F931F209175
:102ED000390530913A052817390739F6309751F5F9
:102EE00010923C0510923B05B0933A05A09339052A
:102EF000BCCFD383C28340815181840F951FC817F3
:102F0000D90761F44E5F5F4F88819981480F591F3F
:102F1000518340838A819B8193838283211531056C
:102F200009F0B0CFF0933C05E0933B059ECFFD0147
:102F3000DC01C0CF13821282D7CFFB01DC014150EC
:102F4000504048F001900D920020C9F701C01D9239
:0C2F500041505040E0F70895F894FFCF86
:102F5C00FF130000003D058000000000006102C16D
:102F6C0001EE01AE021F02FD011102000000001271
:102F7C0006E5054106BB05DE05CB05BC054D6178B4
:102F8C0020736572766F7320617474616368656415
:102F9C0000556E6B6E6F776E2070696E206D6F646E
:102FAC0065004932433A20546F6F206D616E792071
:102FBC00627974657320726563656976656400492E
:102FCC0032433A20546F6F206665772062797465BE
:102FDC00732072656365697665640031302D6269B2
:102FEC00742061646472657373696E67206E6F74AC
:102FFC0020737570706F7274656400746F6F206DE0
:10300C00616E792071756572696573002F686F6DDB
:10301C00652F656C6F72656E7A2F41726475696E7F
:10302C006F2D536B6574636865732F6C6962726185
:10303C00726965732F4669726D6174612F65786171
:10304C006D706C65732F5374616E64617264466944
:10305C00726D6174612F5374616E64617264466940
:0A306C00726D6174612E696E6F00D1
:00000001FF
